{
  "contractName": "BasaltStore",
  "abi": [
    {
      "constant": true,
      "inputs": [
        {
          "name": "",
          "type": "uint64"
        }
      ],
      "name": "ListOfDocuments",
      "outputs": [
        {
          "name": "id",
          "type": "uint256"
        },
        {
          "name": "ipfsHash",
          "type": "string"
        },
        {
          "name": "uploader",
          "type": "address"
        },
        {
          "name": "dateUploaded",
          "type": "uint256"
        },
        {
          "name": "userID",
          "type": "string"
        }
      ],
      "payable": false,
      "stateMutability": "view",
      "type": "function",
      "signature": "0x948a6764"
    },
    {
      "constant": true,
      "inputs": [],
      "name": "documentCount",
      "outputs": [
        {
          "name": "",
          "type": "uint256"
        }
      ],
      "payable": false,
      "stateMutability": "view",
      "type": "function",
      "signature": "0xa5b16b2e"
    },
    {
      "constant": false,
      "inputs": [
        {
          "name": "_ipfsLocation",
          "type": "string"
        },
        {
          "name": "_uploadDate",
          "type": "uint256"
        },
        {
          "name": "_key",
          "type": "uint64"
        },
        {
          "name": "_userID",
          "type": "string"
        }
      ],
      "name": "sendDocument",
      "outputs": [],
      "payable": false,
      "stateMutability": "nonpayable",
      "type": "function",
      "signature": "0xb4d3fca5"
    },
    {
      "constant": true,
      "inputs": [
        {
          "name": "_id",
          "type": "uint64"
        }
      ],
      "name": "getDocument",
      "outputs": [
        {
          "name": "",
          "type": "string"
        },
        {
          "name": "",
          "type": "address"
        },
        {
          "name": "",
          "type": "uint256"
        },
        {
          "name": "",
          "type": "string"
        }
      ],
      "payable": false,
      "stateMutability": "view",
      "type": "function",
      "signature": "0x8844d877"
    }
  ],
  "bytecode": "0x608060405234801561001057600080fd5b506108c8806100206000396000f3fe6080604052600436106100615763ffffffff7c01000000000000000000000000000000000000000000000000000000006000350416638844d8778114610066578063948a676414610198578063a5b16b2e146102d1578063b4d3fca5146102f8575b600080fd5b34801561007257600080fd5b5061009a6004803603602081101561008957600080fd5b503567ffffffffffffffff1661044a565b604051808060200185600160a060020a0316600160a060020a0316815260200184815260200180602001838103835287818151815260200191508051906020019080838360005b838110156100f95781810151838201526020016100e1565b50505050905090810190601f1680156101265780820380516001836020036101000a031916815260200191505b50838103825284518152845160209182019186019080838360005b83811015610159578181015183820152602001610141565b50505050905090810190601f1680156101865780820380516001836020036101000a031916815260200191505b50965050505050505060405180910390f35b3480156101a457600080fd5b506101cc600480360360208110156101bb57600080fd5b503567ffffffffffffffff166105e6565b604051808681526020018060200185600160a060020a0316600160a060020a0316815260200184815260200180602001838103835287818151815260200191508051906020019080838360005b83811015610231578181015183820152602001610219565b50505050905090810190601f16801561025e5780820380516001836020036101000a031916815260200191505b50838103825284518152845160209182019186019080838360005b83811015610291578181015183820152602001610279565b50505050905090810190601f1680156102be5780820380516001836020036101000a031916815260200191505b5097505050505050505060405180910390f35b3480156102dd57600080fd5b506102e6610734565b60408051918252519081900360200190f35b34801561030457600080fd5b506104486004803603608081101561031b57600080fd5b81019060208101813564010000000081111561033657600080fd5b82018360208201111561034857600080fd5b8035906020019184600183028401116401000000008311171561036a57600080fd5b91908080601f016020809104026020016040519081016040528093929190818152602001838380828437600092019190915250929584359567ffffffffffffffff602087013516959194509250606081019150604001356401000000008111156103d357600080fd5b8201836020820111156103e557600080fd5b8035906020019184600183028401116401000000008311171561040757600080fd5b91908080601f01602080910402602001604051908101604052809392919081815260200183838082843760009201919091525092955061073a945050505050565b005b60606000806060806000808767ffffffffffffffff1667ffffffffffffffff1681526020019081526020016000206001018054600181600116156101000203166002900480601f01602080910402602001604051908101604052809291908181526020018280546001816001161561010002031660029004801561050f5780601f106104e45761010080835404028352916020019161050f565b820191906000526020600020905b8154815290600101906020018083116104f257829003601f168201915b5050505067ffffffffffffffff88166000908152602081815260409182902060028082015460038301546004909301805486516101006001831615026000190190911693909304601f8101869004860284018601909652858352969750600160a060020a03169591945060609390928301828280156105cf5780601f106105a4576101008083540402835291602001916105cf565b820191906000526020600020905b8154815290600101906020018083116105b257829003601f168201915b50979d969c50949a50919850939650505050505050565b600060208181529181526040908190208054600180830180548551600293821615610100026000190190911692909204601f81018790048702830187019095528482529194929390928301828280156106805780601f1061065557610100808354040283529160200191610680565b820191906000526020600020905b81548152906001019060200180831161066357829003601f168201915b5050505060028381015460038501546004860180546040805160206101006001851615026000190190931696909604601f81018390048302870183019091528086529697600160a060020a039094169692955092939290919083018282801561072a5780601f106106ff5761010080835404028352916020019161072a565b820191906000526020600020905b81548152906001019060200180831161070d57829003601f168201915b5050505050905085565b60015481565b6001805481018082556040805160a08101825291825260208083018881523384840152606084018890526080840186905267ffffffffffffffff871660009081528083529290922083518155915180519394929361079f938501929190910190610801565b50604082015160028201805473ffffffffffffffffffffffffffffffffffffffff1916600160a060020a0390921691909117905560608201516003820155608082015180516107f8916004840191602090910190610801565b50505050505050565b828054600181600116156101000203166002900490600052602060002090601f016020900481019282601f1061084257805160ff191683800117855561086f565b8280016001018555821561086f579182015b8281111561086f578251825591602001919060010190610854565b5061087b92915061087f565b5090565b61089991905b8082111561087b5760008155600101610885565b9056fea165627a7a723058208cf89e2495ffd8d70c74e8f88ae537b189c6fe89036a972f027993cd82d14cec0029",
  "source": "pragma solidity 0.5.0;\r\n\r\n// Basic app of how to store and retrieve a document id for IPFS stored on Ethereum network\r\ncontract BasaltStore {\r\n\r\n    // struct of how a document will be stored\r\n    struct documentStore {\r\n        // unique id of the doc\r\n        uint256 id;\r\n        // the url of the ipfs node where the document is stored\r\n        string ipfsHash;\r\n        // wallet address of who uploaded the document\r\n        address uploader;\r\n        // date the document was uploaded (created here)\r\n        uint dateUploaded;\r\n        // uploaders id on firebase database\r\n        string userID;\r\n    }\r\n\r\n    // mapping of all documents\r\n    mapping (uint64 => documentStore) public ListOfDocuments; \r\n    // count of all documents stored\r\n    uint256 public documentCount;\r\n\r\n    /** Stores the newly created document details */\r\n    function sendDocument(\r\n        string memory _ipfsLocation, \r\n        uint256 _uploadDate,\r\n        uint64 _key,\r\n        string memory _userID\r\n    ) \r\n    public\r\n    {\r\n        documentCount ++;\r\n        ListOfDocuments[_key] = documentStore(documentCount, _ipfsLocation, msg.sender, _uploadDate, _userID);\r\n    }\r\n\r\n    /** Retrieves docuement details */\r\n    function getDocument(\r\n        uint64 _id\r\n    ) \r\n    public \r\n    view\r\n    returns (string memory, address, uint256, string memory)\r\n    {\r\n        // return the attributes of the documentStore we need\r\n        string memory ipfsHash = ListOfDocuments[_id].ipfsHash;\r\n        address uploader = ListOfDocuments[_id].uploader;\r\n        uint256 dateUploaded = ListOfDocuments[_id].dateUploaded;\r\n        string memory userID = ListOfDocuments[_id].userID;\r\n        return (ipfsHash, uploader, dateUploaded, userID);\r\n    }\r\n}",
  "sourcePath": "C:/Users/elite/Desktop/Blockchain Project/Basalt/contracts/BasaltStore.sol",
  "compiler": {
    "name": "solc",
    "version": "0.5.0+commit.1d4f565a.Emscripten.clang"
  },
  "schemaVersion": "3.0.2",
  "updatedAt": "2019-03-29T16:54:57.525Z",
  "devdoc": {
    "methods": {}
  },
  "userdoc": {
    "methods": {
      "getDocument(uint64)": {
        "notice": "Retrieves docuement details "
      },
      "sendDocument(string,uint256,uint64,string)": {
        "notice": "Stores the newly created document details "
      }
    }
  }
}