{
  "contractName": "BasaltStore",
  "abi": [
    {
      "constant": true,
      "inputs": [],
      "name": "documentCount",
      "outputs": [
        {
          "name": "",
          "type": "uint256"
        }
      ],
      "payable": false,
      "stateMutability": "view",
      "type": "function",
      "signature": "0xa5b16b2e"
    },
    {
      "constant": true,
      "inputs": [
        {
          "name": "",
          "type": "uint256"
        }
      ],
      "name": "ListOfDocuments",
      "outputs": [
        {
          "name": "id",
          "type": "uint256"
        },
        {
          "name": "ipfsHash",
          "type": "string"
        },
        {
          "name": "uploader",
          "type": "address"
        },
        {
          "name": "dateUploaded",
          "type": "uint256"
        }
      ],
      "payable": false,
      "stateMutability": "view",
      "type": "function",
      "signature": "0xf6b0a225"
    },
    {
      "constant": false,
      "inputs": [
        {
          "name": "_ipfsLocation",
          "type": "string"
        },
        {
          "name": "_uploadDate",
          "type": "uint256"
        }
      ],
      "name": "sendDocument",
      "outputs": [
        {
          "name": "",
          "type": "uint256"
        }
      ],
      "payable": false,
      "stateMutability": "nonpayable",
      "type": "function",
      "signature": "0xa5a7ee67"
    },
    {
      "constant": true,
      "inputs": [
        {
          "name": "_id",
          "type": "uint256"
        }
      ],
      "name": "getDocument",
      "outputs": [
        {
          "name": "",
          "type": "string"
        },
        {
          "name": "",
          "type": "address"
        },
        {
          "name": "",
          "type": "uint256"
        }
      ],
      "payable": false,
      "stateMutability": "view",
      "type": "function",
      "signature": "0x3f9b250a"
    }
  ],
  "bytecode": "0x608060405234801561001057600080fd5b506105c0806100206000396000f3fe6080604052600436106100615763ffffffff7c01000000000000000000000000000000000000000000000000000000006000350416633f9b250a8114610066578063a5a7ee6714610128578063a5b16b2e146101ef578063f6b0a22514610204575b600080fd5b34801561007257600080fd5b506100906004803603602081101561008957600080fd5b50356102cd565b604051808060200184600160a060020a0316600160a060020a03168152602001838152602001828103825285818151815260200191508051906020019080838360005b838110156100eb5781810151838201526020016100d3565b50505050905090810190601f1680156101185780820380516001836020036101000a031916815260200191505b5094505050505060405180910390f35b34801561013457600080fd5b506101dd6004803603604081101561014b57600080fd5b81019060208101813564010000000081111561016657600080fd5b82018360208201111561017857600080fd5b8035906020019184600183028401116401000000008311171561019a57600080fd5b91908080601f016020809104026020016040519081016040528093929190818152602001838380828437600092019190915250929550509135925061039d915050565b60408051918252519081900360200190f35b3480156101fb57600080fd5b506101dd610439565b34801561021057600080fd5b5061022e6004803603602081101561022757600080fd5b503561043f565b604051808581526020018060200184600160a060020a0316600160a060020a03168152602001838152602001828103825285818151815260200191508051906020019080838360005b8381101561028f578181015183820152602001610277565b50505050905090810190601f1680156102bc5780820380516001836020036101000a031916815260200191505b509550505050505060405180910390f35b600081815260208181526040808320600190810180548351600293821615610100026000190190911692909204601f8101859004850283018501909352828252606094938493869392918301828280156103685780601f1061033d57610100808354040283529160200191610368565b820191906000526020600020905b81548152906001019060200180831161034b57829003601f168201915b505050600097885250506020869052604090952060028101546003909101549596600160a060020a0390911695945092505050565b60018054810180825560408051608081018252828152602080820187815233838501526060830187905260009485528482529284208251815592518051949592946103ef9385019291909101906104f9565b50604082015160028201805473ffffffffffffffffffffffffffffffffffffffff1916600160a060020a039092169190911790556060909101516003909101555050600154919050565b60015481565b600060208181529181526040908190208054600180830180548551600293821615610100026000190190911692909204601f81018790048702830187019095528482529194929390928301828280156104d95780601f106104ae576101008083540402835291602001916104d9565b820191906000526020600020905b8154815290600101906020018083116104bc57829003601f168201915b5050505060028301546003909301549192600160a060020a031691905084565b828054600181600116156101000203166002900490600052602060002090601f016020900481019282601f1061053a57805160ff1916838001178555610567565b82800160010185558215610567579182015b8281111561056757825182559160200191906001019061054c565b50610573929150610577565b5090565b61059191905b80821115610573576000815560010161057d565b9056fea165627a7a72305820b420f8eb4ea43e4b442f6df8da0cd836a060fcbf732167ac1864f1bc506e831b0029",
  "source": "pragma solidity 0.5.0;\r\n\r\n// Basic app of how to store and retrieve a document id for IPFS stored on Ethereum network\r\ncontract BasaltStore {\r\n\r\n    // struct of how a document will be stored\r\n    struct documentStore {\r\n\r\n        // unique id of the doc\r\n        uint256 id;\r\n        // the url of the ipfs node where the document is stored\r\n        string ipfsHash;\r\n        // wallet address of who uploaded the document\r\n        address uploader;\r\n        // date the document was uploaded (created here)\r\n        uint dateUploaded;\r\n        \r\n\r\n    }\r\n\r\n    // mapping of all documents\r\n    mapping (uint => documentStore) public ListOfDocuments; \r\n    // count of all documents stored\r\n    uint256 public documentCount;\r\n\r\n    /** Stores the newly created document details */\r\n    // should this return a way to locate it?\r\n    function sendDocument(\r\n        string memory _ipfsLocation, \r\n        uint256 _uploadDate \r\n    ) \r\n    public \r\n    returns (uint256)\r\n    {\r\n        documentCount ++;\r\n        ListOfDocuments[documentCount] = documentStore(documentCount, _ipfsLocation, msg.sender, _uploadDate);\r\n        return documentCount ;\r\n    }\r\n\r\n    /** Retrieves docuement details */\r\n    function getDocument(\r\n        uint256 _id\r\n    ) \r\n    public \r\n    view\r\n    returns (string memory, address, uint256)\r\n    {\r\n        // return the attributes of the documentStore we need\r\n        string memory ipfsHash = ListOfDocuments[_id].ipfsHash;\r\n        address uploader = ListOfDocuments[_id].uploader;\r\n        uint256 dateUploaded = ListOfDocuments[_id].dateUploaded;\r\n        return (ipfsHash, uploader, dateUploaded);\r\n    }\r\n}",
  "sourcePath": "C:/Users/elite/Desktop/Blockchain Project/Basalt/contracts/BasaltStore.sol",
  "compiler": {
    "name": "solc",
    "version": "0.5.0+commit.1d4f565a.Emscripten.clang"
  },
  "schemaVersion": "3.0.2",
  "updatedAt": "2019-03-14T12:18:40.682Z",
  "devdoc": {
    "methods": {}
  },
  "userdoc": {
    "methods": {
      "getDocument(uint256)": {
        "notice": "Retrieves docuement details "
      },
      "sendDocument(string,uint256)": {
        "notice": "Stores the newly created document details "
      }
    }
  }
}