{
  "contractName": "BasaltStore",
  "abi": [
    {
      "constant": true,
      "inputs": [
        {
          "name": "",
          "type": "uint64"
        }
      ],
      "name": "ListOfDocuments",
      "outputs": [
        {
          "name": "id",
          "type": "uint256"
        },
        {
          "name": "ipfsHash",
          "type": "string"
        },
        {
          "name": "uploader",
          "type": "address"
        },
        {
          "name": "dateUploaded",
          "type": "uint256"
        }
      ],
      "payable": false,
      "stateMutability": "view",
      "type": "function",
      "signature": "0x948a6764"
    },
    {
      "constant": true,
      "inputs": [],
      "name": "documentCount",
      "outputs": [
        {
          "name": "",
          "type": "uint256"
        }
      ],
      "payable": false,
      "stateMutability": "view",
      "type": "function",
      "signature": "0xa5b16b2e"
    },
    {
      "constant": false,
      "inputs": [
        {
          "name": "_ipfsLocation",
          "type": "string"
        },
        {
          "name": "_uploadDate",
          "type": "uint256"
        },
        {
          "name": "_key",
          "type": "uint64"
        }
      ],
      "name": "sendDocument",
      "outputs": [],
      "payable": false,
      "stateMutability": "nonpayable",
      "type": "function",
      "signature": "0x7aa3bd6a"
    },
    {
      "constant": true,
      "inputs": [
        {
          "name": "_id",
          "type": "uint64"
        }
      ],
      "name": "getDocument",
      "outputs": [
        {
          "name": "",
          "type": "string"
        },
        {
          "name": "",
          "type": "address"
        },
        {
          "name": "",
          "type": "uint256"
        }
      ],
      "payable": false,
      "stateMutability": "view",
      "type": "function",
      "signature": "0x8844d877"
    }
  ],
  "bytecode": "0x608060405234801561001057600080fd5b50610602806100206000396000f3fe6080604052600436106100615763ffffffff7c01000000000000000000000000000000000000000000000000000000006000350416637aa3bd6a81146100665780638844d8771461012a578063948a6764146101f6578063a5b16b2e146102c9575b600080fd5b34801561007257600080fd5b506101286004803603606081101561008957600080fd5b8101906020810181356401000000008111156100a457600080fd5b8201836020820111156100b657600080fd5b803590602001918460018302840111640100000000831117156100d857600080fd5b91908080601f016020809104026020016040519081016040528093929190818152602001838380828437600092019190915250929550508235935050506020013567ffffffffffffffff166102f0565b005b34801561013657600080fd5b5061015e6004803603602081101561014d57600080fd5b503567ffffffffffffffff16610393565b604051808060200184600160a060020a0316600160a060020a03168152602001838152602001828103825285818151815260200191508051906020019080838360005b838110156101b95781810151838201526020016101a1565b50505050905090810190601f1680156101e65780820380516001836020036101000a031916815260200191505b5094505050505060405180910390f35b34801561020257600080fd5b5061022a6004803603602081101561021957600080fd5b503567ffffffffffffffff1661047b565b604051808581526020018060200184600160a060020a0316600160a060020a03168152602001838152602001828103825285818151815260200191508051906020019080838360005b8381101561028b578181015183820152602001610273565b50505050905090810190601f1680156102b85780820380516001836020036101000a031916815260200191505b509550505050505060405180910390f35b3480156102d557600080fd5b506102de610535565b60408051918252519081900360200190f35b60018054810180825560408051608081018252918252602080830187815233848401526060840187905267ffffffffffffffff861660009081528083529290922083518155915180519394929361034e93850192919091019061053b565b50604082015160028201805473ffffffffffffffffffffffffffffffffffffffff1916600160a060020a03909216919091179055606090910151600390910155505050565b67ffffffffffffffff8116600090815260208181526040808320600190810180548351600293821615610100026000190190911692909204601f8101859004850283018501909352828252606094938493869392918301828280156104395780601f1061040e57610100808354040283529160200191610439565b820191906000526020600020905b81548152906001019060200180831161041c57829003601f168201915b50505067ffffffffffffffff881660009081526020819052604090206002810154600390910154939750600160a060020a031695509193505050509193909250565b600060208181529181526040908190208054600180830180548551600293821615610100026000190190911692909204601f81018790048702830187019095528482529194929390928301828280156105155780601f106104ea57610100808354040283529160200191610515565b820191906000526020600020905b8154815290600101906020018083116104f857829003601f168201915b5050505060028301546003909301549192600160a060020a031691905084565b60015481565b828054600181600116156101000203166002900490600052602060002090601f016020900481019282601f1061057c57805160ff19168380011785556105a9565b828001600101855582156105a9579182015b828111156105a957825182559160200191906001019061058e565b506105b59291506105b9565b5090565b6105d391905b808211156105b557600081556001016105bf565b9056fea165627a7a72305820ac7a2a71c84463bd655a5f664d5fcfb1f04e193c4a048c06e768ab74ecaf32750029",
  "source": "pragma solidity 0.5.0;\r\n\r\n// Basic app of how to store and retrieve a document id for IPFS stored on Ethereum network\r\ncontract BasaltStore {\r\n\r\n    // struct of how a document will be stored\r\n    struct documentStore {\r\n        // unique id of the doc\r\n        uint256 id;\r\n        // the url of the ipfs node where the document is stored\r\n        string ipfsHash;\r\n        // wallet address of who uploaded the document\r\n        address uploader;\r\n        // date the document was uploaded (created here)\r\n        uint dateUploaded;\r\n    }\r\n\r\n    // mapping of all documents\r\n    mapping (uint64 => documentStore) public ListOfDocuments; \r\n    // count of all documents stored\r\n    uint256 public documentCount;\r\n\r\n    /** Stores the newly created document details */\r\n    function sendDocument(\r\n        string memory _ipfsLocation, \r\n        uint256 _uploadDate,\r\n        uint64 _key\r\n    ) \r\n    public\r\n    {\r\n        documentCount ++;\r\n        ListOfDocuments[_key] = documentStore(documentCount, _ipfsLocation, msg.sender, _uploadDate);\r\n    }\r\n\r\n    /** Retrieves docuement details */\r\n    function getDocument(\r\n        uint64 _id\r\n    ) \r\n    public \r\n    view\r\n    returns (string memory, address, uint256)\r\n    {\r\n        // return the attributes of the documentStore we need\r\n        string memory ipfsHash = ListOfDocuments[_id].ipfsHash;\r\n        address uploader = ListOfDocuments[_id].uploader;\r\n        uint256 dateUploaded = ListOfDocuments[_id].dateUploaded;\r\n        return (ipfsHash, uploader, dateUploaded);\r\n    }\r\n}",
  "sourcePath": "C:/Users/elite/Desktop/Blockchain Project/Basalt/contracts/BasaltStore.sol",
  "compiler": {
    "name": "solc",
    "version": "0.5.0+commit.1d4f565a.Emscripten.clang"
  },
  "schemaVersion": "3.0.2",
  "updatedAt": "2019-03-29T12:54:57.188Z",
  "devdoc": {
    "methods": {}
  },
  "userdoc": {
    "methods": {
      "getDocument(uint64)": {
        "notice": "Retrieves docuement details "
      },
      "sendDocument(string,uint256,uint64)": {
        "notice": "Stores the newly created document details "
      }
    }
  }
}