{
  "contractName": "BasaltStore",
  "abi": [
    {
      "constant": true,
      "inputs": [],
      "name": "documentCount",
      "outputs": [
        {
          "name": "",
          "type": "uint256"
        }
      ],
      "payable": false,
      "stateMutability": "view",
      "type": "function",
      "signature": "0xa5b16b2e"
    },
    {
      "constant": true,
      "inputs": [
        {
          "name": "",
          "type": "uint256"
        }
      ],
      "name": "ListOfDocuments",
      "outputs": [
        {
          "name": "id",
          "type": "uint256"
        },
        {
          "name": "ipfsHash",
          "type": "string"
        },
        {
          "name": "uploader",
          "type": "address"
        },
        {
          "name": "dateUploaded",
          "type": "uint256"
        }
      ],
      "payable": false,
      "stateMutability": "view",
      "type": "function",
      "signature": "0xf6b0a225"
    },
    {
      "anonymous": false,
      "inputs": [
        {
          "indexed": false,
          "name": "id",
          "type": "uint256"
        }
      ],
      "name": "documentAdded",
      "type": "event",
      "signature": "0xed4e245805678e351298f982e4ba6e4503807239246d00d5f74ebc880586a6ff"
    },
    {
      "constant": false,
      "inputs": [
        {
          "name": "_ipfsLocation",
          "type": "string"
        },
        {
          "name": "_uploadDate",
          "type": "uint256"
        }
      ],
      "name": "sendDocument",
      "outputs": [],
      "payable": false,
      "stateMutability": "nonpayable",
      "type": "function",
      "signature": "0xa5a7ee67"
    },
    {
      "constant": true,
      "inputs": [
        {
          "name": "_id",
          "type": "uint256"
        }
      ],
      "name": "getDocument",
      "outputs": [
        {
          "name": "",
          "type": "string"
        },
        {
          "name": "",
          "type": "address"
        },
        {
          "name": "",
          "type": "uint256"
        }
      ],
      "payable": false,
      "stateMutability": "view",
      "type": "function",
      "signature": "0x3f9b250a"
    }
  ],
  "bytecode": "0x608060405234801561001057600080fd5b506105f1806100206000396000f3fe6080604052600436106100615763ffffffff7c01000000000000000000000000000000000000000000000000000000006000350416633f9b250a8114610066578063a5a7ee6714610128578063a5b16b2e146101df578063f6b0a22514610206575b600080fd5b34801561007257600080fd5b506100906004803603602081101561008957600080fd5b50356102cf565b604051808060200184600160a060020a0316600160a060020a03168152602001838152602001828103825285818151815260200191508051906020019080838360005b838110156100eb5781810151838201526020016100d3565b50505050905090810190601f1680156101185780820380516001836020036101000a031916815260200191505b5094505050505060405180910390f35b34801561013457600080fd5b506101dd6004803603604081101561014b57600080fd5b81019060208101813564010000000081111561016657600080fd5b82018360208201111561017857600080fd5b8035906020019184600183028401116401000000008311171561019a57600080fd5b91908080601f016020809104026020016040519081016040528093929190818152602001838380828437600092019190915250929550509135925061039f915050565b005b3480156101eb57600080fd5b506101f461046a565b60408051918252519081900360200190f35b34801561021257600080fd5b506102306004803603602081101561022957600080fd5b5035610470565b604051808581526020018060200184600160a060020a0316600160a060020a03168152602001838152602001828103825285818151815260200191508051906020019080838360005b83811015610291578181015183820152602001610279565b50505050905090810190601f1680156102be5780820380516001836020036101000a031916815260200191505b509550505050505060405180910390f35b600081815260208181526040808320600190810180548351600293821615610100026000190190911692909204601f81018590048502830185019093528282526060949384938693929183018282801561036a5780601f1061033f5761010080835404028352916020019161036a565b820191906000526020600020905b81548152906001019060200180831161034d57829003601f168201915b505050600097885250506020869052604090952060028101546003909101549596600160a060020a0390911695945092505050565b6001805481018082556040805160808101825282815260208082018781523383850152606083018790526000948552848252929093208151815591518051919492936103f09385019291019061052a565b5060408281015160028301805473ffffffffffffffffffffffffffffffffffffffff1916600160a060020a03909216919091179055606090920151600390910155600154815190815290517fed4e245805678e351298f982e4ba6e4503807239246d00d5f74ebc880586a6ff916020908290030190a15050565b60015481565b600060208181529181526040908190208054600180830180548551600293821615610100026000190190911692909204601f810187900487028301870190955284825291949293909283018282801561050a5780601f106104df5761010080835404028352916020019161050a565b820191906000526020600020905b8154815290600101906020018083116104ed57829003601f168201915b5050505060028301546003909301549192600160a060020a031691905084565b828054600181600116156101000203166002900490600052602060002090601f016020900481019282601f1061056b57805160ff1916838001178555610598565b82800160010185558215610598579182015b8281111561059857825182559160200191906001019061057d565b506105a49291506105a8565b5090565b6105c291905b808211156105a457600081556001016105ae565b9056fea165627a7a72305820ee85fd1d20e83056cc85841874df2c6fe65ccbf3f012ac628caf305d7eb08c120029",
  "source": "pragma solidity 0.5.0;\r\n\r\n// Basic app of how to store and retrieve a document id for IPFS stored on Ethereum network\r\ncontract BasaltStore {\r\n\r\n    // struct of how a document will be stored\r\n    struct documentStore {\r\n        // unique id of the doc\r\n        uint256 id;\r\n        // the url of the ipfs node where the document is stored\r\n        string ipfsHash;\r\n        // wallet address of who uploaded the document\r\n        address uploader;\r\n        // date the document was uploaded (created here)\r\n        uint dateUploaded;\r\n    }\r\n\r\n    // mapping of all documents\r\n    mapping (uint => documentStore) public ListOfDocuments; \r\n    // count of all documents stored\r\n    uint256 public documentCount;\r\n\r\n    /** Event that will be used to return the stored index of the newly added document */\r\n    event documentAdded(\r\n        uint id\r\n    );\r\n\r\n    /** Stores the newly created document details */\r\n    function sendDocument(\r\n        string memory _ipfsLocation, \r\n        uint256 _uploadDate \r\n    ) \r\n    public\r\n    {\r\n        documentCount ++;\r\n        ListOfDocuments[documentCount] = documentStore(documentCount, _ipfsLocation, msg.sender, _uploadDate);\r\n        emit documentAdded(documentCount);\r\n    }\r\n\r\n    /** Return latest */\r\n\r\n    /** Retrieves docuement details */\r\n    function getDocument(\r\n        uint256 _id\r\n    ) \r\n    public \r\n    view\r\n    returns (string memory, address, uint256)\r\n    {\r\n        // return the attributes of the documentStore we need\r\n        string memory ipfsHash = ListOfDocuments[_id].ipfsHash;\r\n        address uploader = ListOfDocuments[_id].uploader;\r\n        uint256 dateUploaded = ListOfDocuments[_id].dateUploaded;\r\n        return (ipfsHash, uploader, dateUploaded);\r\n    }\r\n}",
  "sourcePath": "C:/Users/elite/Desktop/Blockchain Project/Basalt/contracts/BasaltStore.sol",
  "compiler": {
    "name": "solc",
    "version": "0.5.0+commit.1d4f565a.Emscripten.clang"
  },
  "schemaVersion": "3.0.2",
  "updatedAt": "2019-03-19T15:53:39.933Z",
  "devdoc": {
    "methods": {}
  },
  "userdoc": {
    "methods": {
      "getDocument(uint256)": {
        "notice": "Retrieves docuement details "
      },
      "sendDocument(string,uint256)": {
        "notice": "Stores the newly created document details "
      }
    }
  }
}